{
  "contractName": "Tokensale",
  "abi": [
    {
      "constant": true,
      "inputs": [],
      "name": "tokenSold",
      "outputs": [
        {
          "name": "",
          "type": "uint256"
        }
      ],
      "payable": false,
      "stateMutability": "view",
      "type": "function"
    },
    {
      "constant": true,
      "inputs": [],
      "name": "tokenPrice",
      "outputs": [
        {
          "name": "",
          "type": "uint256"
        }
      ],
      "payable": false,
      "stateMutability": "view",
      "type": "function"
    },
    {
      "inputs": [
        {
          "name": "_tokenContract",
          "type": "address"
        },
        {
          "name": "_tokenPrice",
          "type": "uint256"
        }
      ],
      "payable": false,
      "stateMutability": "nonpayable",
      "type": "constructor"
    },
    {
      "anonymous": false,
      "inputs": [
        {
          "indexed": false,
          "name": "_buyer",
          "type": "address"
        },
        {
          "indexed": false,
          "name": "_amount",
          "type": "uint256"
        }
      ],
      "name": "Sell",
      "type": "event"
    },
    {
      "constant": false,
      "inputs": [
        {
          "name": "_noOfTokens",
          "type": "uint256"
        }
      ],
      "name": "buyTokens",
      "outputs": [],
      "payable": true,
      "stateMutability": "payable",
      "type": "function"
    },
    {
      "constant": false,
      "inputs": [],
      "name": "endSale",
      "outputs": [],
      "payable": false,
      "stateMutability": "nonpayable",
      "type": "function"
    }
  ],
  "bytecode": "0x6060604052341561000f57600080fd5b6040516040806106e783398101604052808051906020019091908051906020019091905050336000806101000a81548173ffffffffffffffffffffffffffffffffffffffff021916908373ffffffffffffffffffffffffffffffffffffffff16021790555081600160006101000a81548173ffffffffffffffffffffffffffffffffffffffff021916908373ffffffffffffffffffffffffffffffffffffffff16021790555080600281905550505061061a806100cd6000396000f300606060405260043610610062576000357c0100000000000000000000000000000000000000000000000000000000900463ffffffff1680633610724e14610067578063380d831b1461007f578063519ee19e146100945780637ff9b596146100bd575b600080fd5b61007d60048080359060200190919050506100e6565b005b341561008a57600080fd5b610092610344565b005b341561009f57600080fd5b6100a76105b2565b6040518082815260200191505060405180910390f35b34156100c857600080fd5b6100d06105b8565b6040518082815260200191505060405180910390f35b6100f2816002546105be565b341415156100ff57600080fd5b80600160009054906101000a900473ffffffffffffffffffffffffffffffffffffffff1673ffffffffffffffffffffffffffffffffffffffff166370a08231306040518263ffffffff167c0100000000000000000000000000000000000000000000000000000000028152600401808273ffffffffffffffffffffffffffffffffffffffff1673ffffffffffffffffffffffffffffffffffffffff168152602001915050602060405180830381600087803b15156101bc57600080fd5b5af115156101c957600080fd5b50505060405180519050101515156101e057600080fd5b600160009054906101000a900473ffffffffffffffffffffffffffffffffffffffff1673ffffffffffffffffffffffffffffffffffffffff1663a9059cbb33836040518363ffffffff167c0100000000000000000000000000000000000000000000000000000000028152600401808373ffffffffffffffffffffffffffffffffffffffff1673ffffffffffffffffffffffffffffffffffffffff16815260200182815260200192505050602060405180830381600087803b15156102a457600080fd5b5af115156102b157600080fd5b5050506040518051905015156102c657600080fd5b806003600082825401925050819055507f5e5e995ce3133561afceaa51a9a154d5db228cd7525d34df5185582c18d3df093382604051808373ffffffffffffffffffffffffffffffffffffffff1673ffffffffffffffffffffffffffffffffffffffff1681526020018281526020019250505060405180910390a150565b6000809054906101000a900473ffffffffffffffffffffffffffffffffffffffff1673ffffffffffffffffffffffffffffffffffffffff163373ffffffffffffffffffffffffffffffffffffffff1614151561039f57600080fd5b600160009054906101000a900473ffffffffffffffffffffffffffffffffffffffff1673ffffffffffffffffffffffffffffffffffffffff1663a9059cbb6000809054906101000a900473ffffffffffffffffffffffffffffffffffffffff16600160009054906101000a900473ffffffffffffffffffffffffffffffffffffffff1673ffffffffffffffffffffffffffffffffffffffff166370a08231306040518263ffffffff167c0100000000000000000000000000000000000000000000000000000000028152600401808273ffffffffffffffffffffffffffffffffffffffff1673ffffffffffffffffffffffffffffffffffffffff168152602001915050602060405180830381600087803b15156104bb57600080fd5b5af115156104c857600080fd5b505050604051805190506040518363ffffffff167c0100000000000000000000000000000000000000000000000000000000028152600401808373ffffffffffffffffffffffffffffffffffffffff1673ffffffffffffffffffffffffffffffffffffffff16815260200182815260200192505050602060405180830381600087803b151561055657600080fd5b5af1151561056357600080fd5b50505060405180519050151561057857600080fd5b6000809054906101000a900473ffffffffffffffffffffffffffffffffffffffff1673ffffffffffffffffffffffffffffffffffffffff16ff5b60035481565b60025481565b6000808214806105dd575082828385029250828115156105da57fe5b04145b15156105e857600080fd5b929150505600a165627a7a7230582024083aba9950f915b2492522cce1d031d43596ae88fdb8ddb37e2f3fd33c6eb00029",
  "source": "pragma solidity ^0.4.2;\r\nimport './DappToken.sol';\r\ncontract Tokensale{\r\n\taddress admin;\r\n\tDappToken tokenContract;\r\n\tuint256 public tokenPrice;\r\n\tuint256 public tokenSold;\r\n\tevent Sell( address _buyer, uint256 _amount );\r\n\tfunction Tokensale( DappToken _tokenContract, uint256 _tokenPrice ) public{\r\n\t\tadmin = msg.sender;\r\n\t\ttokenContract = _tokenContract;\r\n\t\ttokenPrice = _tokenPrice;\r\n\t}\r\n\tfunction multiply( uint x, uint y) internal pure returns( uint z){\r\n\t\trequire( y==0 || (z =x*y) / y == x );\r\n\t}\r\n\t// Buy Tokens\r\n\tfunction buyTokens(uint256 _noOfTokens) public payable{\r\n\t\trequire( msg.value == multiply(_noOfTokens, tokenPrice ));\r\n\t\trequire(tokenContract.balanceOf(this) >= _noOfTokens );\r\n\t\trequire(tokenContract.transfer( msg.sender, _noOfTokens ));\r\n\t\ttokenSold+= _noOfTokens;\r\n\t\temit Sell( msg.sender, _noOfTokens );\r\n\t}\r\n\t// Ending the tonkenSale\r\n\tfunction endSale() public{\r\n\t\t// Require only admin\r\n\t\trequire( msg.sender == admin );\r\n\t\t// Transfer remaining tokens to admin\r\n\t\trequire( tokenContract.transfer(admin, tokenContract.balanceOf(this)));\r\n\t\t// Destroy the contract\r\n\t\t\r\n\t\tselfdestruct(admin);\r\n\t}\r\n\t\r\n}",
  "sourcePath": "G:\\Tutorials\\Ethereum\\Dapp\\rl-token\\contracts\\TokenSale.sol",
  "compiler": {
    "name": "solc",
    "version": "0.4.21+commit.dfe3193c.Emscripten.clang"
  },
  "schemaVersion": "2.0.0",
  "updatedAt": "2018-05-01T10:39:01.375Z"
}